{
  "contractName": "SimpleStrStore",
  "abi": [
    {
      "anonymous": false,
      "inputs": [
        {
          "indexed": true,
          "name": "_value",
          "type": "string"
        },
        {
          "indexed": false,
          "name": "_sender",
          "type": "address"
        }
      ],
      "name": "NewValueSet",
      "type": "event",
      "signature": "0xb15cdc36ef0c9ebf0f9e232607b0b075c0dbf58553eb0e1f3140b9a1816f5b3d"
    },
    {
      "anonymous": false,
      "inputs": [
        {
          "indexed": true,
          "name": "_value",
          "type": "string"
        },
        {
          "indexed": false,
          "name": "_sender",
          "type": "address"
        }
      ],
      "name": "NewValueSetAgain",
      "type": "event",
      "signature": "0x9a30320914410044f878c45d1db8e2e4854f51683a0d8b31129b835c5ee050c8"
    },
    {
      "constant": false,
      "inputs": [
        {
          "name": "_value",
          "type": "string"
        }
      ],
      "name": "set",
      "outputs": [],
      "payable": false,
      "stateMutability": "nonpayable",
      "type": "function",
      "signature": "0x4ed3885e"
    },
    {
      "constant": false,
      "inputs": [
        {
          "name": "_value",
          "type": "string"
        }
      ],
      "name": "setAgain",
      "outputs": [],
      "payable": false,
      "stateMutability": "nonpayable",
      "type": "function",
      "signature": "0xf8af9f90"
    },
    {
      "constant": true,
      "inputs": [],
      "name": "get",
      "outputs": [
        {
          "name": "",
          "type": "string"
        },
        {
          "name": "",
          "type": "address"
        }
      ],
      "payable": false,
      "stateMutability": "view",
      "type": "function",
      "signature": "0x6d4ce63c"
    }
  ],
  "bytecode": "0x608060405234801561001057600080fd5b5061053a806100206000396000f300608060405260043610610057576000357c0100000000000000000000000000000000000000000000000000000000900463ffffffff1680634ed3885e1461005c5780636d4ce63c146100c5578063f8af9f9014610188575b600080fd5b34801561006857600080fd5b506100c3600480360381019080803590602001908201803590602001908080601f01602080910402602001604051908101604052809392919081815260200183838082843782019150505050505091929192905050506101f1565b005b3480156100d157600080fd5b506100da6102d8565b60405180806020018373ffffffffffffffffffffffffffffffffffffffff1673ffffffffffffffffffffffffffffffffffffffff168152602001828103825284818151815260200191508051906020019080838360005b8381101561014c578082015181840152602081019050610131565b50505050905090810190601f1680156101795780820380516001836020036101000a031916815260200191505b50935050505060405180910390f35b34801561019457600080fd5b506101ef600480360381019080803590602001908201803590602001908080601f0160208091040260200160405190810160405280939291908181526020018383808284378201915050505050509192919290505050610382565b005b8060009080519060200190610207929190610469565b50600060405180828054600181600116156101000203166002900480156102655780601f10610243576101008083540402835291820191610265565b820191906000526020600020905b815481529060010190602001808311610251575b505091505060405180910390207fb15cdc36ef0c9ebf0f9e232607b0b075c0dbf58553eb0e1f3140b9a1816f5b3d33604051808273ffffffffffffffffffffffffffffffffffffffff1673ffffffffffffffffffffffffffffffffffffffff16815260200191505060405180910390a250565b606060008033818054600181600116156101000203166002900480601f0160208091040260200160405190810160405280929190818152602001828054600181600116156101000203166002900480156103735780601f1061034857610100808354040283529160200191610373565b820191906000526020600020905b81548152906001019060200180831161035657829003601f168201915b50505050509150915091509091565b8060009080519060200190610398929190610469565b50600060405180828054600181600116156101000203166002900480156103f65780601f106103d45761010080835404028352918201916103f6565b820191906000526020600020905b8154815290600101906020018083116103e2575b505091505060405180910390207f9a30320914410044f878c45d1db8e2e4854f51683a0d8b31129b835c5ee050c833604051808273ffffffffffffffffffffffffffffffffffffffff1673ffffffffffffffffffffffffffffffffffffffff16815260200191505060405180910390a250565b828054600181600116156101000203166002900490600052602060002090601f016020900481019282601f106104aa57805160ff19168380011785556104d8565b828001600101855582156104d8579182015b828111156104d75782518255916020019190600101906104bc565b5b5090506104e591906104e9565b5090565b61050b91905b808211156105075760008160009055506001016104ef565b5090565b905600a165627a7a72305820bc5d9e344da0ff117180e01376c0658cced28237bb74d5fa1eee32ac943000e60029",
  "source": "pragma solidity ^0.4.22;\r\n\r\ncontract SimpleStrStore {\r\n    string value;\r\n\r\n    event NewValueSet(string indexed _value, address _sender);\r\n    event NewValueSetAgain(string indexed _value, address _sender);\r\n\r\n    function set(string memory _value) public {\r\n        value = _value;\r\n        emit NewValueSet(value, msg.sender);\r\n    }\r\n\r\n    function setAgain(string memory _value) public {\r\n        value = _value;\r\n        emit NewValueSetAgain(value, msg.sender);\r\n    }\r\n\r\n    function get() public view returns (string memory, address) {\r\n        return (value, msg.sender);\r\n    }\r\n}\r\n",
  "sourcePath": "C:/lib/CURRENT_DEV/echo/truffle/contracts/SimpleStrStore.sol",
  "compiler": {
    "name": "solc",
    "version": "0.4.24+commit.e67f0147.Emscripten.clang"
  },
  "schemaVersion": "3.0.3",
  "updatedAt": "2019-03-17T17:36:10.511Z",
  "devdoc": {
    "methods": {}
  },
  "userdoc": {
    "methods": {}
  }
}