{
  "contractName": "EchoRegister",
  "abi": [
    {
      "anonymous": false,
      "inputs": [
        {
          "indexed": false,
          "name": "_name",
          "type": "string"
        },
        {
          "indexed": false,
          "name": "_address",
          "type": "address"
        }
      ],
      "name": "indexRegistered",
      "type": "event",
      "signature": "0x44b167addc57e43800654abf3917df2da4f89d058ead2bfb9f9b76d442945698"
    },
    {
      "constant": false,
      "inputs": [
        {
          "name": "_name",
          "type": "string"
        }
      ],
      "name": "createIndex",
      "outputs": [],
      "payable": false,
      "stateMutability": "nonpayable",
      "type": "function",
      "signature": "0x807947ca"
    },
    {
      "constant": true,
      "inputs": [],
      "name": "getIndexName",
      "outputs": [
        {
          "name": "",
          "type": "string"
        }
      ],
      "payable": false,
      "stateMutability": "view",
      "type": "function",
      "signature": "0xb14b08c5"
    }
  ],
  "bytecode": "0x608060405234801561001057600080fd5b5061047e806100206000396000f3fe60806040526004361061004c576000357c0100000000000000000000000000000000000000000000000000000000900463ffffffff168063807947ca14610051578063b14b08c514610119575b600080fd5b34801561005d57600080fd5b506101176004803603602081101561007457600080fd5b810190808035906020019064010000000081111561009157600080fd5b8201836020820111156100a357600080fd5b803590602001918460018302840111640100000000831117156100c557600080fd5b91908080601f016020809104026020016040519081016040528093929190818152602001838380828437600081840152601f19601f8201169050808301925050505050505091929192905050506101a9565b005b34801561012557600080fd5b5061012e6102cf565b6040518080602001828103825283818151815260200191508051906020019080838360005b8381101561016e578082015181840152602081019050610153565b50505050905090810190601f16801561019b5780820380516001836020036101000a031916815260200191505b509250505060405180910390f35b806000803373ffffffffffffffffffffffffffffffffffffffff1673ffffffffffffffffffffffffffffffffffffffff16815260200190815260200160002090805190602001906101fb9291906103ad565b507f44b167addc57e43800654abf3917df2da4f89d058ead2bfb9f9b76d442945698813360405180806020018373ffffffffffffffffffffffffffffffffffffffff1673ffffffffffffffffffffffffffffffffffffffff168152602001828103825284818151815260200191508051906020019080838360005b83811015610291578082015181840152602081019050610276565b50505050905090810190601f1680156102be5780820380516001836020036101000a031916815260200191505b50935050505060405180910390a150565b60606000803373ffffffffffffffffffffffffffffffffffffffff1673ffffffffffffffffffffffffffffffffffffffff1681526020019081526020016000208054600181600116156101000203166002900480601f0160208091040260200160405190810160405280929190818152602001828054600181600116156101000203166002900480156103a35780601f10610378576101008083540402835291602001916103a3565b820191906000526020600020905b81548152906001019060200180831161038657829003601f168201915b5050505050905090565b828054600181600116156101000203166002900490600052602060002090601f016020900481019282601f106103ee57805160ff191683800117855561041c565b8280016001018555821561041c579182015b8281111561041b578251825591602001919060010190610400565b5b509050610429919061042d565b5090565b61044f91905b8082111561044b576000816000905550600101610433565b5090565b9056fea165627a7a72305820eb494ff5dea95f9c4a4a34bc212c0534c405c64e0bbd844d7936ac0b7c5f10090029",
  "source": "pragma solidity ^0.5.0;\r\n\r\n\r\ncontract EchoRegister {\r\n  mapping (address => string) ownerToIndexName;\r\n \r\n  event indexRegistered(string _name, address _address);\r\n  \r\n  modifier indexMustExist(){\r\n    bytes memory emptyStringTest = bytes(ownerToIndexName[msg.sender]);\r\n    require(emptyStringTest.length != 0, \" Index must exist, call createIndex() and initialize first.\");\r\n    _;\r\n  }\r\n\r\n  function createIndex(string memory _name) public {\r\n    ownerToIndexName[msg.sender] = _name;\r\n    emit indexRegistered(_name, msg.sender);\r\n  }\r\n\r\n  function getIndexName() public view returns (string memory) {\r\n    return ownerToIndexName[msg.sender];\r\n  }\r\n}\r\n",
  "sourcePath": "C:/lib/CURRENT_DEV/echo/contracts/EchoRegister.sol",
  "compiler": {
    "name": "solc",
    "version": "0.5.0+commit.1d4f565a.Emscripten.clang"
  },
  "schemaVersion": "3.0.5",
  "updatedAt": "2019-03-30T18:51:04.621Z",
  "devdoc": {
    "methods": {}
  },
  "userdoc": {
    "methods": {}
  }
}