{
  "contractName": "EchoRegister",
  "abi": [
    {
      "anonymous": false,
      "inputs": [
        {
          "indexed": false,
          "name": "_name",
          "type": "string"
        },
        {
          "indexed": false,
          "name": "_address",
          "type": "address"
        }
      ],
      "name": "indexRegistered",
      "type": "event",
      "signature": "0x44b167addc57e43800654abf3917df2da4f89d058ead2bfb9f9b76d442945698"
    },
    {
      "constant": true,
      "inputs": [],
      "name": "getAllAddresses",
      "outputs": [
        {
          "name": "",
          "type": "address[]"
        }
      ],
      "payable": false,
      "stateMutability": "view",
      "type": "function",
      "signature": "0x9516a104"
    },
    {
      "constant": false,
      "inputs": [
        {
          "name": "_name",
          "type": "string"
        }
      ],
      "name": "createIndex",
      "outputs": [],
      "payable": false,
      "stateMutability": "nonpayable",
      "type": "function",
      "signature": "0x807947ca"
    },
    {
      "constant": true,
      "inputs": [],
      "name": "getIndexName",
      "outputs": [
        {
          "name": "",
          "type": "string"
        }
      ],
      "payable": false,
      "stateMutability": "view",
      "type": "function",
      "signature": "0xb14b08c5"
    },
    {
      "constant": true,
      "inputs": [
        {
          "name": "_id",
          "type": "uint256"
        }
      ],
      "name": "getAddressForId",
      "outputs": [
        {
          "name": "",
          "type": "address"
        }
      ],
      "payable": false,
      "stateMutability": "view",
      "type": "function",
      "signature": "0xebd3828e"
    }
  ],
  "bytecode": "0x608060405234801561001057600080fd5b506106fb806100206000396000f3fe608060405260043610610062576000357c0100000000000000000000000000000000000000000000000000000000900463ffffffff168063807947ca146100675780639516a1041461012f578063b14b08c51461019b578063ebd3828e1461022b575b600080fd5b34801561007357600080fd5b5061012d6004803603602081101561008a57600080fd5b81019080803590602001906401000000008111156100a757600080fd5b8201836020820111156100b957600080fd5b803590602001918460018302840111640100000000831117156100db57600080fd5b91908080601f016020809104026020016040519081016040528093929190818152602001838380828437600081840152601f19601f8201169050808301925050505050505091929192905050506102a6565b005b34801561013b57600080fd5b50610144610432565b6040518080602001828103825283818151815260200191508051906020019060200280838360005b8381101561018757808201518184015260208101905061016c565b505050509050019250505060405180910390f35b3480156101a757600080fd5b506101b061050f565b6040518080602001828103825283818151815260200191508051906020019080838360005b838110156101f05780820151818401526020810190506101d5565b50505050905090810190601f16801561021d5780820380516001836020036101000a031916815260200191505b509250505060405180910390f35b34801561023757600080fd5b506102646004803603602081101561024e57600080fd5b81019080803590602001909291905050506105ed565b604051808273ffffffffffffffffffffffffffffffffffffffff1673ffffffffffffffffffffffffffffffffffffffff16815260200191505060405180910390f35b806000803373ffffffffffffffffffffffffffffffffffffffff1673ffffffffffffffffffffffffffffffffffffffff16815260200190815260200160002090805190602001906102f892919061062a565b506002600081548092919060010191905055503360016000600254815260200190815260200160002060006101000a81548173ffffffffffffffffffffffffffffffffffffffff021916908373ffffffffffffffffffffffffffffffffffffffff1602179055507f44b167addc57e43800654abf3917df2da4f89d058ead2bfb9f9b76d442945698813360405180806020018373ffffffffffffffffffffffffffffffffffffffff1673ffffffffffffffffffffffffffffffffffffffff168152602001828103825284818151815260200191508051906020019080838360005b838110156103f45780820151818401526020810190506103d9565b50505050905090810190601f1680156104215780820380516001836020036101000a031916815260200191505b50935050505060405180910390a150565b6060806002546040519080825280602002602001820160405280156104665781602001602082028038833980820191505090505b50905060008090505b600254811015610507576001600060018301815260200190815260200160002060009054906101000a900473ffffffffffffffffffffffffffffffffffffffff1682828151811015156104be57fe5b9060200190602002019073ffffffffffffffffffffffffffffffffffffffff16908173ffffffffffffffffffffffffffffffffffffffff1681525050808060010191505061046f565b508091505090565b60606000803373ffffffffffffffffffffffffffffffffffffffff1673ffffffffffffffffffffffffffffffffffffffff1681526020019081526020016000208054600181600116156101000203166002900480601f0160208091040260200160405190810160405280929190818152602001828054600181600116156101000203166002900480156105e35780601f106105b8576101008083540402835291602001916105e3565b820191906000526020600020905b8154815290600101906020018083116105c657829003601f168201915b5050505050905090565b60006001600083815260200190815260200160002060009054906101000a900473ffffffffffffffffffffffffffffffffffffffff169050919050565b828054600181600116156101000203166002900490600052602060002090601f016020900481019282601f1061066b57805160ff1916838001178555610699565b82800160010185558215610699579182015b8281111561069857825182559160200191906001019061067d565b5b5090506106a691906106aa565b5090565b6106cc91905b808211156106c85760008160009055506001016106b0565b5090565b9056fea165627a7a72305820b4e6820368d864ea56d41a1329179d7ee2f873d83e6d0814bed967ab7a5fa6580029",
  "source": "pragma solidity ^0.5.0;\r\n\r\n\r\ncontract EchoRegister {\r\n  mapping (address => string) registeredToIndexName;\r\n  mapping (uint => address) registeredToAddress;\r\n  uint registeredCount;\r\n\r\n  event indexRegistered(string _name, address _address);\r\n  \r\n  modifier indexMustExist(){\r\n    bytes memory emptyStringTest = bytes( registeredToIndexName[msg.sender]);\r\n    require(emptyStringTest.length != 0, \" Index must exist, call createIndex() and initialize first.\");\r\n    _;\r\n  }\r\n\r\n\r\n  function getAllAddresses() view public returns (address[] memory) {\r\n    address[] memory result = new address[](registeredCount);\r\n    for (uint i = 0; i < registeredCount; i++){\r\n        result[i] = registeredToAddress[i+1];\r\n    }\r\n    return result;\r\n  }\r\n\r\n\r\n  function createIndex(string memory _name) public {\r\n    registeredToIndexName[msg.sender] = _name;\r\n    registeredCount++;\r\n    registeredToAddress[registeredCount] = msg.sender;\r\n    emit indexRegistered(_name, msg.sender);\r\n  }\r\n\r\n  function getIndexName() public view returns (string memory) {\r\n    return registeredToIndexName[msg.sender];\r\n  }\r\n\r\n  function getAddressForId(uint _id) public view returns (address){\r\n    return registeredToAddress[_id];\r\n  }\r\n}\r\n",
  "sourcePath": "C:/lib/CURRENT_DEV/echo/contracts/EchoRegister.sol",
  "compiler": {
    "name": "solc",
    "version": "0.5.0+commit.1d4f565a.Emscripten.clang"
  },
  "schemaVersion": "3.0.5",
  "updatedAt": "2019-03-30T19:48:53.687Z",
  "devdoc": {
    "methods": {}
  },
  "userdoc": {
    "methods": {}
  }
}