{
  "contractName": "EchoRegister",
  "abi": [
    {
      "anonymous": false,
      "inputs": [
        {
          "indexed": false,
          "name": "_name",
          "type": "string"
        },
        {
          "indexed": false,
          "name": "_address",
          "type": "address"
        }
      ],
      "name": "indexRegistered",
      "type": "event",
      "signature": "0x44b167addc57e43800654abf3917df2da4f89d058ead2bfb9f9b76d442945698"
    },
    {
      "constant": true,
      "inputs": [],
      "name": "getCount",
      "outputs": [
        {
          "name": "",
          "type": "uint256"
        }
      ],
      "payable": false,
      "stateMutability": "view",
      "type": "function",
      "signature": "0xa87d942c"
    },
    {
      "constant": true,
      "inputs": [],
      "name": "getAllAddresses",
      "outputs": [
        {
          "name": "",
          "type": "address[]"
        }
      ],
      "payable": false,
      "stateMutability": "view",
      "type": "function",
      "signature": "0x9516a104"
    },
    {
      "constant": false,
      "inputs": [
        {
          "name": "_name",
          "type": "string"
        }
      ],
      "name": "createIndex",
      "outputs": [],
      "payable": false,
      "stateMutability": "nonpayable",
      "type": "function",
      "signature": "0x807947ca"
    },
    {
      "constant": true,
      "inputs": [],
      "name": "getIndexName",
      "outputs": [
        {
          "name": "",
          "type": "string"
        }
      ],
      "payable": false,
      "stateMutability": "view",
      "type": "function",
      "signature": "0xb14b08c5"
    },
    {
      "constant": true,
      "inputs": [
        {
          "name": "_id",
          "type": "uint256"
        }
      ],
      "name": "getAddressForId",
      "outputs": [
        {
          "name": "",
          "type": "address"
        }
      ],
      "payable": false,
      "stateMutability": "view",
      "type": "function",
      "signature": "0xebd3828e"
    }
  ],
  "bytecode": "0x608060405234801561001057600080fd5b5061073b806100206000396000f3fe60806040526004361061006d576000357c0100000000000000000000000000000000000000000000000000000000900463ffffffff168063807947ca146100725780639516a1041461013a578063a87d942c146101a6578063b14b08c5146101d1578063ebd3828e14610261575b600080fd5b34801561007e57600080fd5b506101386004803603602081101561009557600080fd5b81019080803590602001906401000000008111156100b257600080fd5b8201836020820111156100c457600080fd5b803590602001918460018302840111640100000000831117156100e657600080fd5b91908080601f016020809104026020016040519081016040528093929190818152602001838380828437600081840152601f19601f8201169050808301925050505050505091929192905050506102dc565b005b34801561014657600080fd5b5061014f610468565b6040518080602001828103825283818151815260200191508051906020019060200280838360005b83811015610192578082015181840152602081019050610177565b505050509050019250505060405180910390f35b3480156101b257600080fd5b506101bb610545565b6040518082815260200191505060405180910390f35b3480156101dd57600080fd5b506101e661054f565b6040518080602001828103825283818151815260200191508051906020019080838360005b8381101561022657808201518184015260208101905061020b565b50505050905090810190601f1680156102535780820380516001836020036101000a031916815260200191505b509250505060405180910390f35b34801561026d57600080fd5b5061029a6004803603602081101561028457600080fd5b810190808035906020019092919050505061062d565b604051808273ffffffffffffffffffffffffffffffffffffffff1673ffffffffffffffffffffffffffffffffffffffff16815260200191505060405180910390f35b806000803373ffffffffffffffffffffffffffffffffffffffff1673ffffffffffffffffffffffffffffffffffffffff168152602001908152602001600020908051906020019061032e92919061066a565b506002600081548092919060010191905055503360016000600254815260200190815260200160002060006101000a81548173ffffffffffffffffffffffffffffffffffffffff021916908373ffffffffffffffffffffffffffffffffffffffff1602179055507f44b167addc57e43800654abf3917df2da4f89d058ead2bfb9f9b76d442945698813360405180806020018373ffffffffffffffffffffffffffffffffffffffff1673ffffffffffffffffffffffffffffffffffffffff168152602001828103825284818151815260200191508051906020019080838360005b8381101561042a57808201518184015260208101905061040f565b50505050905090810190601f1680156104575780820380516001836020036101000a031916815260200191505b50935050505060405180910390a150565b60608060025460405190808252806020026020018201604052801561049c5781602001602082028038833980820191505090505b50905060008090505b60025481101561053d576001600060018301815260200190815260200160002060009054906101000a900473ffffffffffffffffffffffffffffffffffffffff1682828151811015156104f457fe5b9060200190602002019073ffffffffffffffffffffffffffffffffffffffff16908173ffffffffffffffffffffffffffffffffffffffff168152505080806001019150506104a5565b508091505090565b6000600254905090565b60606000803373ffffffffffffffffffffffffffffffffffffffff1673ffffffffffffffffffffffffffffffffffffffff1681526020019081526020016000208054600181600116156101000203166002900480601f0160208091040260200160405190810160405280929190818152602001828054600181600116156101000203166002900480156106235780601f106105f857610100808354040283529160200191610623565b820191906000526020600020905b81548152906001019060200180831161060657829003601f168201915b5050505050905090565b60006001600083815260200190815260200160002060009054906101000a900473ffffffffffffffffffffffffffffffffffffffff169050919050565b828054600181600116156101000203166002900490600052602060002090601f016020900481019282601f106106ab57805160ff19168380011785556106d9565b828001600101855582156106d9579182015b828111156106d85782518255916020019190600101906106bd565b5b5090506106e691906106ea565b5090565b61070c91905b808211156107085760008160009055506001016106f0565b5090565b9056fea165627a7a72305820f5f423fe884276b1dfa1d5149f46f3638b203fabb38ad87ef88151065d1949e20029",
  "source": "pragma solidity ^0.5.0;\r\n\r\n\r\ncontract EchoRegister {\r\n  mapping (address => string) registeredToIndexName;\r\n  mapping (uint => address) registeredToAddress;\r\n  uint registeredCount;\r\n\r\n  event indexRegistered(string _name, address _address);\r\n  \r\n  modifier indexMustExist(){\r\n    bytes memory emptyStringTest = bytes( registeredToIndexName[msg.sender]);\r\n    require(emptyStringTest.length != 0, \" Index must exist, call createIndex() and initialize first.\");\r\n    _;\r\n  }\r\n\r\n\r\n  function getCount() public view returns(uint){\r\n    return registeredCount;\r\n  }\r\n\r\n  function getAllAddresses() view public returns (address[] memory) {\r\n    address[] memory result = new address[](registeredCount);\r\n    for (uint i = 0; i < registeredCount; i++){\r\n        result[i] = registeredToAddress[i+1];\r\n    }\r\n    return result;\r\n  }\r\n\r\n\r\n  function createIndex(string memory _name) public {\r\n    registeredToIndexName[msg.sender] = _name;\r\n    registeredCount++;\r\n    registeredToAddress[registeredCount] = msg.sender;\r\n    emit indexRegistered(_name, msg.sender);\r\n  }\r\n\r\n  function getIndexName() public view returns (string memory) {\r\n    return registeredToIndexName[msg.sender];\r\n  }\r\n\r\n  function getAddressForId(uint _id) public view returns (address){\r\n    return registeredToAddress[_id];\r\n  }\r\n}\r\n",
  "sourcePath": "C:/lib/CURRENT_DEV/echo/contracts/EchoRegister.sol",
  "compiler": {
    "name": "solc",
    "version": "0.5.0+commit.1d4f565a.Emscripten.clang"
  },
  "schemaVersion": "3.0.5",
  "updatedAt": "2019-04-01T16:43:27.026Z",
  "devdoc": {
    "methods": {}
  },
  "userdoc": {
    "methods": {}
  }
}