{
  "contractName": "Echo",
  "abi": [
    {
      "constant": true,
      "inputs": [
        {
          "name": "",
          "type": "uint256"
        }
      ],
      "name": "tokens",
      "outputs": [
        {
          "name": "symbol",
          "type": "string"
        },
        {
          "name": "amount",
          "type": "uint256"
        }
      ],
      "payable": false,
      "stateMutability": "view",
      "type": "function",
      "signature": "0x4f64b2be"
    },
    {
      "constant": true,
      "inputs": [
        {
          "name": "",
          "type": "uint256"
        }
      ],
      "name": "tokenToOwner",
      "outputs": [
        {
          "name": "",
          "type": "address"
        }
      ],
      "payable": false,
      "stateMutability": "view",
      "type": "function",
      "signature": "0xcc0b2c9f"
    },
    {
      "anonymous": false,
      "inputs": [
        {
          "indexed": false,
          "name": "id",
          "type": "uint256"
        },
        {
          "indexed": false,
          "name": "symbol",
          "type": "string"
        },
        {
          "indexed": false,
          "name": "amount",
          "type": "uint256"
        }
      ],
      "name": "tokenAdded",
      "type": "event",
      "signature": "0x5c7d089799caba8622c42736945542b69e7ad402015923ed9a55319c53cdf123"
    },
    {
      "constant": false,
      "inputs": [
        {
          "name": "_symbol",
          "type": "string"
        },
        {
          "name": "_amount",
          "type": "uint256"
        }
      ],
      "name": "addToken",
      "outputs": [],
      "payable": false,
      "stateMutability": "nonpayable",
      "type": "function",
      "signature": "0x8ca132f7"
    },
    {
      "constant": true,
      "inputs": [],
      "name": "tokenCount",
      "outputs": [
        {
          "name": "",
          "type": "uint256"
        }
      ],
      "payable": false,
      "stateMutability": "view",
      "type": "function",
      "signature": "0x9f181b5e"
    },
    {
      "constant": true,
      "inputs": [
        {
          "name": "_id",
          "type": "uint256"
        }
      ],
      "name": "getToken",
      "outputs": [
        {
          "name": "",
          "type": "string"
        },
        {
          "name": "",
          "type": "uint256"
        }
      ],
      "payable": false,
      "stateMutability": "view",
      "type": "function",
      "signature": "0xe4b50cb8"
    },
    {
      "constant": false,
      "inputs": [
        {
          "name": "_name",
          "type": "string"
        }
      ],
      "name": "setIndexName",
      "outputs": [],
      "payable": false,
      "stateMutability": "nonpayable",
      "type": "function",
      "signature": "0xb07ac35e"
    },
    {
      "constant": true,
      "inputs": [],
      "name": "getIndexName",
      "outputs": [
        {
          "name": "",
          "type": "string"
        }
      ],
      "payable": false,
      "stateMutability": "view",
      "type": "function",
      "signature": "0xb14b08c5"
    }
  ],
  "bytecode": "0x608060405234801561001057600080fd5b50610ace806100206000396000f3fe608060405260043610610083576000357c0100000000000000000000000000000000000000000000000000000000900463ffffffff1680634f64b2be146100885780638ca132f7146101435780639f181b5e14610215578063b07ac35e14610240578063b14b08c514610308578063cc0b2c9f14610398578063e4b50cb814610413575b600080fd5b34801561009457600080fd5b506100c1600480360360208110156100ab57600080fd5b81019080803590602001909291905050506104ce565b6040518080602001838152602001828103825284818151815260200191508051906020019080838360005b838110156101075780820151818401526020810190506100ec565b50505050905090810190601f1680156101345780820380516001836020036101000a031916815260200191505b50935050505060405180910390f35b34801561014f57600080fd5b506102136004803603604081101561016657600080fd5b810190808035906020019064010000000081111561018357600080fd5b82018360208201111561019557600080fd5b803590602001918460018302840111640100000000831117156101b757600080fd5b91908080601f016020809104026020016040519081016040528093929190818152602001838380828437600081840152601f19601f82011690508083019250505050505050919291929080359060200190929190505050610599565b005b34801561022157600080fd5b5061022a61075d565b6040518082815260200191505060405180910390f35b34801561024c57600080fd5b506103066004803603602081101561026357600080fd5b810190808035906020019064010000000081111561028057600080fd5b82018360208201111561029257600080fd5b803590602001918460018302840111640100000000831117156102b457600080fd5b91908080601f016020809104026020016040519081016040528093929190818152602001838380828437600081840152601f19601f8201169050808301925050505050505091929192905050506107a4565b005b34801561031457600080fd5b5061031d6107be565b6040518080602001828103825283818151815260200191508051906020019080838360005b8381101561035d578082015181840152602081019050610342565b50505050905090810190601f16801561038a5780820380516001836020036101000a031916815260200191505b509250505060405180910390f35b3480156103a457600080fd5b506103d1600480360360208110156103bb57600080fd5b8101908080359060200190929190505050610860565b604051808273ffffffffffffffffffffffffffffffffffffffff1673ffffffffffffffffffffffffffffffffffffffff16815260200191505060405180910390f35b34801561041f57600080fd5b5061044c6004803603602081101561043657600080fd5b8101908080359060200190929190505050610893565b6040518080602001838152602001828103825284818151815260200191508051906020019080838360005b83811015610492578082015181840152602081019050610477565b50505050905090810190601f1680156104bf5780820380516001836020036101000a031916815260200191505b50935050505060405180910390f35b6003818154811015156104dd57fe5b9060005260206000209060020201600091509050806000018054600181600116156101000203166002900480601f0160208091040260200160405190810160405280929190818152602001828054600181600116156101000203166002900480156105895780601f1061055e57610100808354040283529160200191610589565b820191906000526020600020905b81548152906001019060200180831161056c57829003601f168201915b5050505050908060010154905082565b6000600160036040805190810160405280868152602001858152509080600181540180825580915050906001820390600052602060002090600202016000909192909190915060008201518160000190805190602001906105fb92919061097d565b50602082015181600101555050039050336001600083815260200190815260200160002060006101000a81548173ffffffffffffffffffffffffffffffffffffffff021916908373ffffffffffffffffffffffffffffffffffffffff160217905550600260003373ffffffffffffffffffffffffffffffffffffffff1673ffffffffffffffffffffffffffffffffffffffff168152602001908152602001600020600081548092919060010191905055507f5c7d089799caba8622c42736945542b69e7ad402015923ed9a55319c53cdf1238184846040518084815260200180602001838152602001828103825284818151815260200191508051906020019080838360005b8381101561071c578082015181840152602081019050610701565b50505050905090810190601f1680156107495780820380516001836020036101000a031916815260200191505b5094505050505060405180910390a1505050565b6000600260003373ffffffffffffffffffffffffffffffffffffffff1673ffffffffffffffffffffffffffffffffffffffff16815260200190815260200160002054905090565b80600090805190602001906107ba9291906109fd565b5050565b606060008054600181600116156101000203166002900480601f0160208091040260200160405190810160405280929190818152602001828054600181600116156101000203166002900480156108565780601f1061082b57610100808354040283529160200191610856565b820191906000526020600020905b81548152906001019060200180831161083957829003601f168201915b5050505050905090565b60016020528060005260406000206000915054906101000a900473ffffffffffffffffffffffffffffffffffffffff1681565b606060006003838154811015156108a657fe5b90600052602060002090600202016000016003848154811015156108c657fe5b906000526020600020906002020160010154818054600181600116156101000203166002900480601f01602080910402602001604051908101604052809291908181526020018280546001816001161561010002031660029004801561096d5780601f106109425761010080835404028352916020019161096d565b820191906000526020600020905b81548152906001019060200180831161095057829003601f168201915b5050505050915091509150915091565b828054600181600116156101000203166002900490600052602060002090601f016020900481019282601f106109be57805160ff19168380011785556109ec565b828001600101855582156109ec579182015b828111156109eb5782518255916020019190600101906109d0565b5b5090506109f99190610a7d565b5090565b828054600181600116156101000203166002900490600052602060002090601f016020900481019282601f10610a3e57805160ff1916838001178555610a6c565b82800160010185558215610a6c579182015b82811115610a6b578251825591602001919060010190610a50565b5b509050610a799190610a7d565b5090565b610a9f91905b80821115610a9b576000816000905550600101610a83565b5090565b9056fea165627a7a723058202cb4273c64abe93bc63eec128cc8f1255c11b58297078f54f7dfb6497f5fe5bc0029",
  "source": "pragma solidity ^0.5.0;\n\ncontract Echo {\n  string indexName;\n  //mapping (address => string) indexName;\n\n  mapping (uint => address) public tokenToOwner;\n  mapping (address => uint) ownerTokenCount;\n\n  struct Token{\n    string symbol;\n    uint amount; \n  }\n\n  Token[] public tokens;\n\n  event tokenAdded(uint id, string symbol, uint amount);\n\n\n  //function create index (index _name) --- Could use constructor?\n\n  //check if owner?\n  function addToken(string memory _symbol, uint _amount) public {\n    //TODO: ideally, validate symbol (either via lookup, via another tokens contract, via address contract for that token is deployed)\n    uint id = tokens.push(Token(_symbol, _amount)) - 1;\n    tokenToOwner[id] = msg.sender;\n    ownerTokenCount[msg.sender]++;    \n    emit tokenAdded(id, _symbol, _amount);\n\n  }\n\n  function tokenCount() public view returns (uint){\n    return ownerTokenCount[msg.sender];\n  }\n\n  function getToken(uint _id) public view returns(string memory, uint){\n    return (tokens[_id].symbol, tokens[_id].amount);\n  }\n\n  /*function removeToken(uint _id) public {\n        require(tokenToOwner[_id]==msg.sender);\n\n  }*/\n\n  function setIndexName(string memory _name) public {\n    indexName = _name;\n  }\n\n  function getIndexName() public view returns (string memory) {\n    return indexName;\n  }\n}\n",
  "sourcePath": "C:/lib/CURRENT DEV/echo/contracts/Echo.sol",
  "compiler": {
    "name": "solc",
    "version": "0.5.0+commit.1d4f565a.Emscripten.clang"
  },
  "schemaVersion": "3.0.2",
  "updatedAt": "2019-03-27T18:51:46.480Z",
  "devdoc": {
    "methods": {}
  },
  "userdoc": {
    "methods": {}
  }
}