{
  "contractName": "Echo",
  "abi": [
    {
      "constant": true,
      "inputs": [
        {
          "name": "",
          "type": "uint256"
        }
      ],
      "name": "tokens",
      "outputs": [
        {
          "name": "symbol",
          "type": "string"
        },
        {
          "name": "amount",
          "type": "uint256"
        }
      ],
      "payable": false,
      "stateMutability": "view",
      "type": "function",
      "signature": "0x4f64b2be"
    },
    {
      "constant": true,
      "inputs": [
        {
          "name": "",
          "type": "uint256"
        }
      ],
      "name": "tokenToOwner",
      "outputs": [
        {
          "name": "",
          "type": "address"
        }
      ],
      "payable": false,
      "stateMutability": "view",
      "type": "function",
      "signature": "0xcc0b2c9f"
    },
    {
      "anonymous": false,
      "inputs": [
        {
          "indexed": false,
          "name": "_name",
          "type": "string"
        },
        {
          "indexed": false,
          "name": "_address",
          "type": "address"
        }
      ],
      "name": "indexCreated",
      "type": "event",
      "signature": "0x616fc420e9930c5d686f9f415144a1cf682c1c8e3628363eff9e83b386eaa12e"
    },
    {
      "anonymous": false,
      "inputs": [
        {
          "indexed": false,
          "name": "_id",
          "type": "uint256"
        },
        {
          "indexed": false,
          "name": "_symbol",
          "type": "string"
        },
        {
          "indexed": false,
          "name": "_amount",
          "type": "uint256"
        }
      ],
      "name": "tokenAdded",
      "type": "event",
      "signature": "0x5c7d089799caba8622c42736945542b69e7ad402015923ed9a55319c53cdf123"
    },
    {
      "constant": false,
      "inputs": [
        {
          "name": "_symbol",
          "type": "string"
        },
        {
          "name": "_amount",
          "type": "uint256"
        }
      ],
      "name": "addToken",
      "outputs": [],
      "payable": false,
      "stateMutability": "nonpayable",
      "type": "function",
      "signature": "0x8ca132f7"
    },
    {
      "constant": true,
      "inputs": [],
      "name": "tokenCount",
      "outputs": [
        {
          "name": "",
          "type": "uint256"
        }
      ],
      "payable": false,
      "stateMutability": "view",
      "type": "function",
      "signature": "0x9f181b5e"
    },
    {
      "constant": true,
      "inputs": [
        {
          "name": "_id",
          "type": "uint256"
        }
      ],
      "name": "getToken",
      "outputs": [
        {
          "name": "",
          "type": "string"
        },
        {
          "name": "",
          "type": "uint256"
        }
      ],
      "payable": false,
      "stateMutability": "view",
      "type": "function",
      "signature": "0xe4b50cb8"
    },
    {
      "constant": true,
      "inputs": [
        {
          "name": "_owner",
          "type": "address"
        }
      ],
      "name": "tokensForOwner",
      "outputs": [
        {
          "name": "",
          "type": "uint256[]"
        }
      ],
      "payable": false,
      "stateMutability": "view",
      "type": "function",
      "signature": "0x13de148b"
    },
    {
      "constant": false,
      "inputs": [
        {
          "name": "_name",
          "type": "string"
        }
      ],
      "name": "createIndex",
      "outputs": [],
      "payable": false,
      "stateMutability": "nonpayable",
      "type": "function",
      "signature": "0x807947ca"
    },
    {
      "constant": true,
      "inputs": [],
      "name": "getIndexName",
      "outputs": [
        {
          "name": "",
          "type": "string"
        }
      ],
      "payable": false,
      "stateMutability": "view",
      "type": "function",
      "signature": "0xb14b08c5"
    }
  ],
  "bytecode": "0x608060405234801561001057600080fd5b50610f74806100206000396000f3fe60806040526004361061008e576000357c0100000000000000000000000000000000000000000000000000000000900463ffffffff16806313de148b146100935780634f64b2be14610139578063807947ca146101f45780638ca132f7146102bc5780639f181b5e1461038e578063b14b08c5146103b9578063cc0b2c9f14610449578063e4b50cb8146104c4575b600080fd5b34801561009f57600080fd5b506100e2600480360360208110156100b657600080fd5b81019080803573ffffffffffffffffffffffffffffffffffffffff16906020019092919050505061057f565b6040518080602001828103825283818151815260200191508051906020019060200280838360005b8381101561012557808201518184015260208101905061010a565b505050509050019250505060405180910390f35b34801561014557600080fd5b506101726004803603602081101561015c57600080fd5b81019080803590602001909291905050506106b0565b6040518080602001838152602001828103825284818151815260200191508051906020019080838360005b838110156101b857808201518184015260208101905061019d565b50505050905090810190601f1680156101e55780820380516001836020036101000a031916815260200191505b50935050505060405180910390f35b34801561020057600080fd5b506102ba6004803603602081101561021757600080fd5b810190808035906020019064010000000081111561023457600080fd5b82018360208201111561024657600080fd5b8035906020019184600183028401116401000000008311171561026857600080fd5b91908080601f016020809104026020016040519081016040528093929190818152602001838380828437600081840152601f19601f82011690508083019250505050505050919291929050505061077b565b005b3480156102c857600080fd5b5061038c600480360360408110156102df57600080fd5b81019080803590602001906401000000008111156102fc57600080fd5b82018360208201111561030e57600080fd5b8035906020019184600183028401116401000000008311171561033057600080fd5b91908080601f016020809104026020016040519081016040528093929190818152602001838380828437600081840152601f19601f820116905080830192505050505050509192919290803590602001909291905050506108a1565b005b34801561039a57600080fd5b506103a3610be1565b6040518082815260200191505060405180910390f35b3480156103c557600080fd5b506103ce610c28565b6040518080602001828103825283818151815260200191508051906020019080838360005b8381101561040e5780820151818401526020810190506103f3565b50505050905090810190601f16801561043b5780820380516001836020036101000a031916815260200191505b509250505060405180910390f35b34801561045557600080fd5b506104826004803603602081101561046c57600080fd5b8101908080359060200190929190505050610d06565b604051808273ffffffffffffffffffffffffffffffffffffffff1673ffffffffffffffffffffffffffffffffffffffff16815260200191505060405180910390f35b3480156104d057600080fd5b506104fd600480360360208110156104e757600080fd5b8101908080359060200190929190505050610d39565b6040518080602001838152602001828103825284818151815260200191508051906020019080838360005b83811015610543578082015181840152602081019050610528565b50505050905090810190601f1680156105705780820380516001836020036101000a031916815260200191505b50935050505060405180910390f35b606080600260008473ffffffffffffffffffffffffffffffffffffffff1673ffffffffffffffffffffffffffffffffffffffff168152602001908152602001600020546040519080825280602002602001820160405280156105f05781602001602082028038833980820191505090505b509050600080905060008090505b6003805490508110156106a5578473ffffffffffffffffffffffffffffffffffffffff166001600083815260200190815260200160002060009054906101000a900473ffffffffffffffffffffffffffffffffffffffff1673ffffffffffffffffffffffffffffffffffffffff1614156106985780838381518110151561068157fe5b906020019060200201818152505081806001019250505b80806001019150506105fe565b508192505050919050565b6003818154811015156106bf57fe5b9060005260206000209060020201600091509050806000018054600181600116156101000203166002900480601f01602080910402602001604051908101604052809291908181526020018280546001816001161561010002031660029004801561076b5780601f106107405761010080835404028352916020019161076b565b820191906000526020600020905b81548152906001019060200180831161074e57829003601f168201915b5050505050908060010154905082565b806000803373ffffffffffffffffffffffffffffffffffffffff1673ffffffffffffffffffffffffffffffffffffffff16815260200190815260200160002090805190602001906107cd929190610e23565b507f616fc420e9930c5d686f9f415144a1cf682c1c8e3628363eff9e83b386eaa12e813360405180806020018373ffffffffffffffffffffffffffffffffffffffff1673ffffffffffffffffffffffffffffffffffffffff168152602001828103825284818151815260200191508051906020019080838360005b83811015610863578082015181840152602081019050610848565b50505050905090810190601f1680156108905780820380516001836020036101000a031916815260200191505b50935050505060405180910390a150565b60606000803373ffffffffffffffffffffffffffffffffffffffff1673ffffffffffffffffffffffffffffffffffffffff1681526020019081526020016000208054600181600116156101000203166002900480601f0160208091040260200160405190810160405280929190818152602001828054600181600116156101000203166002900480156109755780601f1061094a57610100808354040283529160200191610975565b820191906000526020600020905b81548152906001019060200180831161095857829003601f168201915b505050505090506000815114151515610a1c576040517f08c379a000000000000000000000000000000000000000000000000000000000815260040180806020018281038252603b8152602001807f20496e646578206d7573742065786973742c2063616c6c20637265617465496e81526020017f646578282920616e6420696e697469616c697a652066697273742e000000000081525060400191505060405180910390fd5b600060016003604080519081016040528087815260200186815250908060018154018082558091505090600182039060005260206000209060020201600090919290919091506000820151816000019080519060200190610a7e929190610ea3565b50602082015181600101555050039050336001600083815260200190815260200160002060006101000a81548173ffffffffffffffffffffffffffffffffffffffff021916908373ffffffffffffffffffffffffffffffffffffffff160217905550600260003373ffffffffffffffffffffffffffffffffffffffff1673ffffffffffffffffffffffffffffffffffffffff168152602001908152602001600020600081548092919060010191905055507f5c7d089799caba8622c42736945542b69e7ad402015923ed9a55319c53cdf1238185856040518084815260200180602001838152602001828103825284818151815260200191508051906020019080838360005b83811015610b9f578082015181840152602081019050610b84565b50505050905090810190601f168015610bcc5780820380516001836020036101000a031916815260200191505b5094505050505060405180910390a150505050565b6000600260003373ffffffffffffffffffffffffffffffffffffffff1673ffffffffffffffffffffffffffffffffffffffff16815260200190815260200160002054905090565b60606000803373ffffffffffffffffffffffffffffffffffffffff1673ffffffffffffffffffffffffffffffffffffffff1681526020019081526020016000208054600181600116156101000203166002900480601f016020809104026020016040519081016040528092919081815260200182805460018160011615610100020316600290048015610cfc5780601f10610cd157610100808354040283529160200191610cfc565b820191906000526020600020905b815481529060010190602001808311610cdf57829003601f168201915b5050505050905090565b60016020528060005260406000206000915054906101000a900473ffffffffffffffffffffffffffffffffffffffff1681565b60606000600383815481101515610d4c57fe5b9060005260206000209060020201600001600384815481101515610d6c57fe5b906000526020600020906002020160010154818054600181600116156101000203166002900480601f016020809104026020016040519081016040528092919081815260200182805460018160011615610100020316600290048015610e135780601f10610de857610100808354040283529160200191610e13565b820191906000526020600020905b815481529060010190602001808311610df657829003601f168201915b5050505050915091509150915091565b828054600181600116156101000203166002900490600052602060002090601f016020900481019282601f10610e6457805160ff1916838001178555610e92565b82800160010185558215610e92579182015b82811115610e91578251825591602001919060010190610e76565b5b509050610e9f9190610f23565b5090565b828054600181600116156101000203166002900490600052602060002090601f016020900481019282601f10610ee457805160ff1916838001178555610f12565b82800160010185558215610f12579182015b82811115610f11578251825591602001919060010190610ef6565b5b509050610f1f9190610f23565b5090565b610f4591905b80821115610f41576000816000905550600101610f29565b5090565b9056fea165627a7a723058203384d768e8d5c50c8628b6d163bbee6dd660e1219d58d1820a47c8fb2845719f0029",
  "source": "pragma solidity ^0.5.0;\n\n\ncontract Echo {\n  mapping (address => string) ownerToIndexName;\n  mapping (uint => address) public tokenToOwner;\n  mapping (address => uint) ownerTokenCount;\n\n  Token[] public tokens;\n\n  event indexCreated(string _name, address _address);\n  event tokenAdded(uint _id, string _symbol, uint _amount);\n\n  struct Token{\n    string symbol;\n    uint amount; \n  }\n\n  modifier indexMustExist(){\n    bytes memory emptyStringTest = bytes(ownerToIndexName[msg.sender]);\n    require(emptyStringTest.length != 0, \" Index must exist, call createIndex() and initialize first.\");\n    _;\n  }\n\n  /*modifier isOwner(){\n    \n  }*/\n\n\n  function addToken(string memory _symbol, uint _amount) public indexMustExist{\n    uint id = tokens.push(Token(_symbol, _amount)) - 1;\n    tokenToOwner[id] = msg.sender;\n    ownerTokenCount[msg.sender]++;    \n    emit tokenAdded(id, _symbol, _amount);\n\n  }\n\n  function tokenCount() public view returns (uint){\n    return ownerTokenCount[msg.sender];\n  }\n\n  function getToken(uint _id) public view returns(string memory, uint){\n    return (tokens[_id].symbol, tokens[_id].amount);\n  }\n\n  /*function removeToken(uint _id) public {\n        require(tokenToOwner[_id]==msg.sender);\n\n  }\n\n  function removeAllTokens() public {\n    \n  }*/\n  \n  function tokensForOwner(address _owner) public view returns (uint[] memory){\n    uint[] memory result = new uint[](ownerTokenCount[_owner]);\n    uint counter = 0;\n    for (uint i = 0; i < tokens.length; i++){\n        if(tokenToOwner[i]==_owner){\n            result[counter] = i;\n            counter++;\n        }\n    }\n    return result;\n  }\n  \n\n  function createIndex(string memory _name) public {\n    ownerToIndexName[msg.sender] = _name;\n    emit indexCreated(_name, msg.sender);\n  }\n\n  function getIndexName() public view returns (string memory) {\n    return ownerToIndexName[msg.sender];\n  }\n}\n",
  "sourcePath": "C:/lib/CURRENT DEV/echo/contracts/Echo.sol",
  "compiler": {
    "name": "solc",
    "version": "0.5.0+commit.1d4f565a.Emscripten.clang"
  },
  "schemaVersion": "3.0.2",
  "updatedAt": "2019-03-28T19:36:38.351Z",
  "devdoc": {
    "methods": {}
  },
  "userdoc": {
    "methods": {}
  }
}