{
  "contractName": "Echo",
  "abi": [
    {
      "constant": true,
      "inputs": [
        {
          "name": "",
          "type": "uint256"
        }
      ],
      "name": "tokens",
      "outputs": [
        {
          "name": "symbol",
          "type": "string"
        },
        {
          "name": "amount",
          "type": "uint256"
        }
      ],
      "payable": false,
      "stateMutability": "view",
      "type": "function",
      "signature": "0x4f64b2be"
    },
    {
      "anonymous": false,
      "inputs": [
        {
          "indexed": false,
          "name": "id",
          "type": "uint256"
        },
        {
          "indexed": false,
          "name": "symbol",
          "type": "string"
        },
        {
          "indexed": false,
          "name": "amount",
          "type": "uint256"
        }
      ],
      "name": "tokenAdded",
      "type": "event",
      "signature": "0x5c7d089799caba8622c42736945542b69e7ad402015923ed9a55319c53cdf123"
    },
    {
      "constant": false,
      "inputs": [
        {
          "name": "_symbol",
          "type": "string"
        },
        {
          "name": "_amount",
          "type": "uint256"
        }
      ],
      "name": "addToken",
      "outputs": [],
      "payable": false,
      "stateMutability": "nonpayable",
      "type": "function",
      "signature": "0x8ca132f7"
    },
    {
      "constant": false,
      "inputs": [
        {
          "name": "_name",
          "type": "string"
        }
      ],
      "name": "setIndexName",
      "outputs": [],
      "payable": false,
      "stateMutability": "nonpayable",
      "type": "function",
      "signature": "0xb07ac35e"
    },
    {
      "constant": true,
      "inputs": [],
      "name": "getIndexName",
      "outputs": [
        {
          "name": "",
          "type": "string"
        }
      ],
      "payable": false,
      "stateMutability": "view",
      "type": "function",
      "signature": "0xb14b08c5"
    }
  ],
  "bytecode": "0x608060405234801561001057600080fd5b50610746806100206000396000f3fe608060405260043610610062576000357c0100000000000000000000000000000000000000000000000000000000900463ffffffff1680634f64b2be146100675780638ca132f714610122578063b07ac35e146101f4578063b14b08c5146102bc575b600080fd5b34801561007357600080fd5b506100a06004803603602081101561008a57600080fd5b810190808035906020019092919050505061034c565b6040518080602001838152602001828103825284818151815260200191508051906020019080838360005b838110156100e65780820151818401526020810190506100cb565b50505050905090810190601f1680156101135780820380516001836020036101000a031916815260200191505b50935050505060405180910390f35b34801561012e57600080fd5b506101f26004803603604081101561014557600080fd5b810190808035906020019064010000000081111561016257600080fd5b82018360208201111561017457600080fd5b8035906020019184600183028401116401000000008311171561019657600080fd5b91908080601f016020809104026020016040519081016040528093929190818152602001838380828437600081840152601f19601f82011690508083019250505050505050919291929080359060200190929190505050610417565b005b34801561020057600080fd5b506102ba6004803603602081101561021757600080fd5b810190808035906020019064010000000081111561023457600080fd5b82018360208201111561024657600080fd5b8035906020019184600183028401116401000000008311171561026857600080fd5b91908080601f016020809104026020016040519081016040528093929190818152602001838380828437600081840152601f19601f820116905080830192505050505050509192919290505050610539565b005b3480156102c857600080fd5b506102d1610553565b6040518080602001828103825283818151815260200191508051906020019080838360005b838110156103115780820151818401526020810190506102f6565b50505050905090810190601f16801561033e5780820380516001836020036101000a031916815260200191505b509250505060405180910390f35b60018181548110151561035b57fe5b9060005260206000209060020201600091509050806000018054600181600116156101000203166002900480601f0160208091040260200160405190810160405280929190818152602001828054600181600116156101000203166002900480156104075780601f106103dc57610100808354040283529160200191610407565b820191906000526020600020905b8154815290600101906020018083116103ea57829003601f168201915b5050505050908060010154905082565b60006001806040805190810160405280868152602001858152509080600181540180825580915050906001820390600052602060002090600202016000909192909190915060008201518160000190805190602001906104789291906105f5565b506020820151816001015550500390507f5c7d089799caba8622c42736945542b69e7ad402015923ed9a55319c53cdf1238184846040518084815260200180602001838152602001828103825284818151815260200191508051906020019080838360005b838110156104f85780820151818401526020810190506104dd565b50505050905090810190601f1680156105255780820380516001836020036101000a031916815260200191505b5094505050505060405180910390a1505050565b806000908051906020019061054f929190610675565b5050565b606060008054600181600116156101000203166002900480601f0160208091040260200160405190810160405280929190818152602001828054600181600116156101000203166002900480156105eb5780601f106105c0576101008083540402835291602001916105eb565b820191906000526020600020905b8154815290600101906020018083116105ce57829003601f168201915b5050505050905090565b828054600181600116156101000203166002900490600052602060002090601f016020900481019282601f1061063657805160ff1916838001178555610664565b82800160010185558215610664579182015b82811115610663578251825591602001919060010190610648565b5b50905061067191906106f5565b5090565b828054600181600116156101000203166002900490600052602060002090601f016020900481019282601f106106b657805160ff19168380011785556106e4565b828001600101855582156106e4579182015b828111156106e35782518255916020019190600101906106c8565b5b5090506106f191906106f5565b5090565b61071791905b808211156107135760008160009055506001016106fb565b5090565b9056fea165627a7a7230582053091ea7370e0743175bc605a64391e55194db3a92e558b6a890c5ab29b67bdb0029",
  "source": "pragma solidity ^0.5.0;\n\ncontract Echo {\n  string indexName;\n\n  struct Token{\n    string symbol;\n    uint amount; \n  }\n\n  Token[] public tokens;\n\n\n  event tokenAdded(uint id, string symbol, uint amount);\n\n\n  function addToken(string memory _symbol, uint _amount) public {\n    //TODO: ideally, validate symbol (either via lookup, via another tokens contract, via address contract for that token is deployed)\n    uint id = tokens.push(Token(_symbol, _amount)) - 1;\n    emit tokenAdded(id, _symbol, _amount);\n\n  }\n\n  /*function removeToken(string memory symbol) public {\n\n  }*/\n\n  function setIndexName(string memory _name) public {\n    indexName = _name;\n  }\n\n  function getIndexName() public view returns (string memory) {\n    return indexName;\n  }\n}\n",
  "sourcePath": "C:/lib/CURRENT DEV/echo/contracts/Echo.sol",
  "compiler": {
    "name": "solc",
    "version": "0.5.0+commit.1d4f565a.Emscripten.clang"
  },
  "schemaVersion": "3.0.2",
  "updatedAt": "2019-03-27T15:07:48.421Z",
  "devdoc": {
    "methods": {}
  },
  "userdoc": {
    "methods": {}
  }
}